{
	"contractName": "NFT",
	"abi": [
		{
			"inputs": [],
			"stateMutability": "nonpayable",
			"type": "constructor"
		},
		{
			"anonymous": false,
			"inputs": [
				{
					"indexed": true,
					"internalType": "address",
					"name": "owner",
					"type": "address"
				},
				{
					"indexed": true,
					"internalType": "address",
					"name": "approved",
					"type": "address"
				},
				{
					"indexed": true,
					"internalType": "uint256",
					"name": "tokenId",
					"type": "uint256"
				}
			],
			"name": "Approval",
			"type": "event"
		},
		{
			"anonymous": false,
			"inputs": [
				{
					"indexed": true,
					"internalType": "address",
					"name": "owner",
					"type": "address"
				},
				{
					"indexed": true,
					"internalType": "address",
					"name": "operator",
					"type": "address"
				},
				{
					"indexed": false,
					"internalType": "bool",
					"name": "approved",
					"type": "bool"
				}
			],
			"name": "ApprovalForAll",
			"type": "event"
		},
		{
			"anonymous": false,
			"inputs": [
				{
					"indexed": false,
					"internalType": "uint256",
					"name": "_fromTokenId",
					"type": "uint256"
				},
				{
					"indexed": false,
					"internalType": "uint256",
					"name": "_toTokenId",
					"type": "uint256"
				}
			],
			"name": "BatchMetadataUpdate",
			"type": "event"
		},
		{
			"anonymous": false,
			"inputs": [
				{
					"indexed": false,
					"internalType": "uint256",
					"name": "_tokenId",
					"type": "uint256"
				}
			],
			"name": "MetadataUpdate",
			"type": "event"
		},
		{
			"anonymous": false,
			"inputs": [
				{
					"indexed": true,
					"internalType": "address",
					"name": "previousOwner",
					"type": "address"
				},
				{
					"indexed": true,
					"internalType": "address",
					"name": "newOwner",
					"type": "address"
				}
			],
			"name": "OwnershipTransferred",
			"type": "event"
		},
		{
			"anonymous": false,
			"inputs": [
				{
					"indexed": true,
					"internalType": "address",
					"name": "from",
					"type": "address"
				},
				{
					"indexed": true,
					"internalType": "address",
					"name": "to",
					"type": "address"
				},
				{
					"indexed": true,
					"internalType": "uint256",
					"name": "tokenId",
					"type": "uint256"
				}
			],
			"name": "Transfer",
			"type": "event"
		},
		{
			"anonymous": false,
			"inputs": [
				{
					"indexed": false,
					"internalType": "address",
					"name": "FromAddress",
					"type": "address"
				},
				{
					"indexed": false,
					"internalType": "address",
					"name": "toAddreess",
					"type": "address"
				},
				{
					"indexed": false,
					"internalType": "uint256",
					"name": "id",
					"type": "uint256"
				}
			],
			"name": "buyNftEvent",
			"type": "event"
		},
		{
			"anonymous": false,
			"inputs": [
				{
					"indexed": false,
					"internalType": "uint256",
					"name": "tokenId",
					"type": "uint256"
				},
				{
					"indexed": false,
					"internalType": "string",
					"name": "newName",
					"type": "string"
				},
				{
					"indexed": false,
					"internalType": "uint256",
					"name": "newPrice",
					"type": "uint256"
				},
				{
					"indexed": false,
					"internalType": "string",
					"name": "newDescription",
					"type": "string"
				},
				{
					"indexed": false,
					"internalType": "string",
					"name": "newImg",
					"type": "string"
				},
				{
					"indexed": false,
					"internalType": "string",
					"name": "metadataTokenUri",
					"type": "string"
				}
			],
			"name": "metadataUpdated",
			"type": "event"
		},
		{
			"anonymous": false,
			"inputs": [
				{
					"indexed": false,
					"internalType": "address",
					"name": "addOfSender",
					"type": "address"
				},
				{
					"indexed": false,
					"internalType": "uint256",
					"name": "id",
					"type": "uint256"
				},
				{
					"indexed": false,
					"internalType": "string",
					"name": "name",
					"type": "string"
				},
				{
					"indexed": false,
					"internalType": "uint256",
					"name": "price",
					"type": "uint256"
				},
				{
					"indexed": false,
					"internalType": "string",
					"name": "description",
					"type": "string"
				},
				{
					"indexed": false,
					"internalType": "string",
					"name": "tokenUri",
					"type": "string"
				},
				{
					"indexed": false,
					"internalType": "string",
					"name": "metadataTokenUri",
					"type": "string"
				}
			],
			"name": "mintevent",
			"type": "event"
		},
		{
			"inputs": [
				{
					"internalType": "uint256",
					"name": "",
					"type": "uint256"
				}
			],
			"name": "DetailsOfTokenID",
			"outputs": [
				{
					"internalType": "address",
					"name": "add",
					"type": "address"
				},
				{
					"internalType": "uint256",
					"name": "tokenId",
					"type": "uint256"
				},
				{
					"internalType": "string",
					"name": "name",
					"type": "string"
				},
				{
					"internalType": "uint256",
					"name": "price",
					"type": "uint256"
				},
				{
					"internalType": "string",
					"name": "desc",
					"type": "string"
				},
				{
					"internalType": "string",
					"name": "tokenUri",
					"type": "string"
				},
				{
					"internalType": "string",
					"name": "metadataTokenUri",
					"type": "string"
				}
			],
			"stateMutability": "view",
			"type": "function",
			"constant": true
		},
		{
			"inputs": [
				{
					"internalType": "address",
					"name": "",
					"type": "address"
				},
				{
					"internalType": "uint256",
					"name": "",
					"type": "uint256"
				}
			],
			"name": "TokenIdsByAddress",
			"outputs": [
				{
					"internalType": "uint256",
					"name": "",
					"type": "uint256"
				}
			],
			"stateMutability": "view",
			"type": "function",
			"constant": true
		},
		{
			"inputs": [
				{
					"internalType": "address",
					"name": "to",
					"type": "address"
				},
				{
					"internalType": "uint256",
					"name": "tokenId",
					"type": "uint256"
				}
			],
			"name": "approve",
			"outputs": [],
			"stateMutability": "nonpayable",
			"type": "function"
		},
		{
			"inputs": [
				{
					"internalType": "address",
					"name": "owner",
					"type": "address"
				}
			],
			"name": "balanceOf",
			"outputs": [
				{
					"internalType": "uint256",
					"name": "",
					"type": "uint256"
				}
			],
			"stateMutability": "view",
			"type": "function",
			"constant": true
		},
		{
			"inputs": [],
			"name": "baseTokenURI",
			"outputs": [
				{
					"internalType": "string",
					"name": "",
					"type": "string"
				}
			],
			"stateMutability": "view",
			"type": "function",
			"constant": true
		},
		{
			"inputs": [
				{
					"internalType": "uint256",
					"name": "tokenId",
					"type": "uint256"
				}
			],
			"name": "getApproved",
			"outputs": [
				{
					"internalType": "address",
					"name": "",
					"type": "address"
				}
			],
			"stateMutability": "view",
			"type": "function",
			"constant": true
		},
		{
			"inputs": [
				{
					"internalType": "address",
					"name": "owner",
					"type": "address"
				},
				{
					"internalType": "address",
					"name": "operator",
					"type": "address"
				}
			],
			"name": "isApprovedForAll",
			"outputs": [
				{
					"internalType": "bool",
					"name": "",
					"type": "bool"
				}
			],
			"stateMutability": "view",
			"type": "function",
			"constant": true
		},
		{
			"inputs": [
				{
					"internalType": "uint256",
					"name": "",
					"type": "uint256"
				}
			],
			"name": "isNftListed",
			"outputs": [
				{
					"internalType": "bool",
					"name": "",
					"type": "bool"
				}
			],
			"stateMutability": "view",
			"type": "function",
			"constant": true
		},
		{
			"inputs": [],
			"name": "name",
			"outputs": [
				{
					"internalType": "string",
					"name": "",
					"type": "string"
				}
			],
			"stateMutability": "view",
			"type": "function",
			"constant": true
		},
		{
			"inputs": [],
			"name": "owner",
			"outputs": [
				{
					"internalType": "address",
					"name": "",
					"type": "address"
				}
			],
			"stateMutability": "view",
			"type": "function",
			"constant": true
		},
		{
			"inputs": [
				{
					"internalType": "uint256",
					"name": "tokenId",
					"type": "uint256"
				}
			],
			"name": "ownerOf",
			"outputs": [
				{
					"internalType": "address",
					"name": "",
					"type": "address"
				}
			],
			"stateMutability": "view",
			"type": "function",
			"constant": true
		},
		{
			"inputs": [],
			"name": "renounceOwnership",
			"outputs": [],
			"stateMutability": "nonpayable",
			"type": "function"
		},
		{
			"inputs": [
				{
					"internalType": "address",
					"name": "from",
					"type": "address"
				},
				{
					"internalType": "address",
					"name": "to",
					"type": "address"
				},
				{
					"internalType": "uint256",
					"name": "tokenId",
					"type": "uint256"
				}
			],
			"name": "safeTransferFrom",
			"outputs": [],
			"stateMutability": "nonpayable",
			"type": "function"
		},
		{
			"inputs": [
				{
					"internalType": "address",
					"name": "from",
					"type": "address"
				},
				{
					"internalType": "address",
					"name": "to",
					"type": "address"
				},
				{
					"internalType": "uint256",
					"name": "tokenId",
					"type": "uint256"
				},
				{
					"internalType": "bytes",
					"name": "data",
					"type": "bytes"
				}
			],
			"name": "safeTransferFrom",
			"outputs": [],
			"stateMutability": "nonpayable",
			"type": "function"
		},
		{
			"inputs": [
				{
					"internalType": "address",
					"name": "",
					"type": "address"
				},
				{
					"internalType": "uint256",
					"name": "",
					"type": "uint256"
				}
			],
			"name": "sellingTokenIdsByAddress",
			"outputs": [
				{
					"internalType": "uint256",
					"name": "",
					"type": "uint256"
				}
			],
			"stateMutability": "view",
			"type": "function",
			"constant": true
		},
		{
			"inputs": [
				{
					"internalType": "address",
					"name": "operator",
					"type": "address"
				},
				{
					"internalType": "bool",
					"name": "approved",
					"type": "bool"
				}
			],
			"name": "setApprovalForAll",
			"outputs": [],
			"stateMutability": "nonpayable",
			"type": "function"
		},
		{
			"inputs": [],
			"name": "symbol",
			"outputs": [
				{
					"internalType": "string",
					"name": "",
					"type": "string"
				}
			],
			"stateMutability": "view",
			"type": "function",
			"constant": true
		},
		{
			"inputs": [
				{
					"internalType": "uint256",
					"name": "index",
					"type": "uint256"
				}
			],
			"name": "tokenByIndex",
			"outputs": [
				{
					"internalType": "uint256",
					"name": "",
					"type": "uint256"
				}
			],
			"stateMutability": "view",
			"type": "function",
			"constant": true
		},
		{
			"inputs": [
				{
					"internalType": "address",
					"name": "owner",
					"type": "address"
				},
				{
					"internalType": "uint256",
					"name": "index",
					"type": "uint256"
				}
			],
			"name": "tokenOfOwnerByIndex",
			"outputs": [
				{
					"internalType": "uint256",
					"name": "",
					"type": "uint256"
				}
			],
			"stateMutability": "view",
			"type": "function",
			"constant": true
		},
		{
			"inputs": [],
			"name": "totalSupply",
			"outputs": [
				{
					"internalType": "uint256",
					"name": "",
					"type": "uint256"
				}
			],
			"stateMutability": "view",
			"type": "function",
			"constant": true
		},
		{
			"inputs": [
				{
					"internalType": "address",
					"name": "from",
					"type": "address"
				},
				{
					"internalType": "address",
					"name": "to",
					"type": "address"
				},
				{
					"internalType": "uint256",
					"name": "tokenId",
					"type": "uint256"
				}
			],
			"name": "transferFrom",
			"outputs": [],
			"stateMutability": "nonpayable",
			"type": "function"
		},
		{
			"inputs": [
				{
					"internalType": "address",
					"name": "newOwner",
					"type": "address"
				}
			],
			"name": "transferOwnership",
			"outputs": [],
			"stateMutability": "nonpayable",
			"type": "function"
		},
		{
			"inputs": [
				{
					"internalType": "bytes4",
					"name": "interfaceId",
					"type": "bytes4"
				}
			],
			"name": "supportsInterface",
			"outputs": [
				{
					"internalType": "bool",
					"name": "",
					"type": "bool"
				}
			],
			"stateMutability": "view",
			"type": "function",
			"constant": true
		},
		{
			"inputs": [
				{
					"internalType": "uint256",
					"name": "tokenId",
					"type": "uint256"
				}
			],
			"name": "tokenURI",
			"outputs": [
				{
					"internalType": "string",
					"name": "",
					"type": "string"
				}
			],
			"stateMutability": "view",
			"type": "function",
			"constant": true
		},
		{
			"inputs": [
				{
					"internalType": "string",
					"name": "_name",
					"type": "string"
				},
				{
					"internalType": "uint256",
					"name": "_price",
					"type": "uint256"
				},
				{
					"internalType": "string",
					"name": "_description",
					"type": "string"
				},
				{
					"internalType": "string",
					"name": "_tokenUri",
					"type": "string"
				},
				{
					"internalType": "string",
					"name": "_metadataTokenUri",
					"type": "string"
				}
			],
			"name": "mintTo",
			"outputs": [
				{
					"internalType": "uint256",
					"name": "",
					"type": "uint256"
				}
			],
			"stateMutability": "nonpayable",
			"type": "function"
		},
		{
			"inputs": [
				{
					"internalType": "uint256",
					"name": "id",
					"type": "uint256"
				}
			],
			"name": "selldata",
			"outputs": [],
			"stateMutability": "nonpayable",
			"type": "function"
		},
		{
			"inputs": [
				{
					"internalType": "address",
					"name": "add",
					"type": "address"
				}
			],
			"name": "getsellingTokenIdsByAddress",
			"outputs": [
				{
					"internalType": "uint256[]",
					"name": "",
					"type": "uint256[]"
				}
			],
			"stateMutability": "view",
			"type": "function",
			"constant": true
		},
		{
			"inputs": [
				{
					"internalType": "address",
					"name": "add",
					"type": "address"
				}
			],
			"name": "getTokenIdsByAddress",
			"outputs": [
				{
					"internalType": "uint256[]",
					"name": "",
					"type": "uint256[]"
				}
			],
			"stateMutability": "view",
			"type": "function",
			"constant": true
		},
		{
			"inputs": [
				{
					"internalType": "address",
					"name": "add",
					"type": "address"
				},
				{
					"internalType": "uint256",
					"name": "_ID",
					"type": "uint256"
				}
			],
			"name": "removeTokenIdsByAddress",
			"outputs": [],
			"stateMutability": "nonpayable",
			"type": "function"
		},
		{
			"inputs": [
				{
					"internalType": "address",
					"name": "add",
					"type": "address"
				},
				{
					"internalType": "uint256",
					"name": "_ID",
					"type": "uint256"
				}
			],
			"name": "removeSell",
			"outputs": [],
			"stateMutability": "nonpayable",
			"type": "function"
		},
		{
			"inputs": [
				{
					"internalType": "uint256",
					"name": "id",
					"type": "uint256"
				}
			],
			"name": "buyNft",
			"outputs": [],
			"stateMutability": "payable",
			"type": "function",
			"payable": true
		},
		{
			"inputs": [
				{
					"internalType": "uint256",
					"name": "_id",
					"type": "uint256"
				}
			],
			"name": "getData",
			"outputs": [
				{
					"components": [
						{
							"internalType": "address",
							"name": "add",
							"type": "address"
						},
						{
							"internalType": "uint256",
							"name": "tokenId",
							"type": "uint256"
						},
						{
							"internalType": "string",
							"name": "name",
							"type": "string"
						},
						{
							"internalType": "uint256",
							"name": "price",
							"type": "uint256"
						},
						{
							"internalType": "string",
							"name": "desc",
							"type": "string"
						},
						{
							"internalType": "string",
							"name": "tokenUri",
							"type": "string"
						},
						{
							"internalType": "string",
							"name": "metadataTokenUri",
							"type": "string"
						}
					],
					"internalType": "struct NFT.Details",
					"name": "",
					"type": "tuple"
				}
			],
			"stateMutability": "view",
			"type": "function",
			"constant": true
		},
		{
			"inputs": [],
			"name": "getOwnerAddress",
			"outputs": [
				{
					"internalType": "address",
					"name": "",
					"type": "address"
				}
			],
			"stateMutability": "view",
			"type": "function",
			"constant": true
		},
		{
			"inputs": [
				{
					"internalType": "uint256",
					"name": "_tokenId",
					"type": "uint256"
				},
				{
					"internalType": "string",
					"name": "_name",
					"type": "string"
				},
				{
					"internalType": "uint256",
					"name": "_price",
					"type": "uint256"
				},
				{
					"internalType": "string",
					"name": "_description",
					"type": "string"
				},
				{
					"internalType": "string",
					"name": "_tokenUri",
					"type": "string"
				},
				{
					"internalType": "string",
					"name": "_metadataTokenUri",
					"type": "string"
				}
			],
			"name": "Update",
			"outputs": [
				{
					"internalType": "string",
					"name": "",
					"type": "string"
				}
			],
			"stateMutability": "nonpayable",
			"type": "function"
		}
	],
	"bytecode": "0x60806040523480156200001157600080fd5b506040518060400160405280600b81526020017f4e46545475746f7269616c0000000000000000000000000000000000000000008152506040518060400160405280600381526020017f4e4654000000000000000000000000000000000000000000000000000000000081525081600090816200008f919062000412565b508060019081620000a1919062000412565b505050620000c4620000b8620000ca60201b60201c565b620000d260201b60201c565b620004f9565b600033905090565b6000600a60009054906101000a900473ffffffffffffffffffffffffffffffffffffffff16905081600a60006101000a81548173ffffffffffffffffffffffffffffffffffffffff021916908373ffffffffffffffffffffffffffffffffffffffff1602179055508173ffffffffffffffffffffffffffffffffffffffff168173ffffffffffffffffffffffffffffffffffffffff167f8be0079c531659141344cd1fd0a4f28419497f9722a3daafe3b4186f6b6457e060405160405180910390a35050565b600081519050919050565b7f4e487b7100000000000000000000000000000000000000000000000000000000600052604160045260246000fd5b7f4e487b7100000000000000000000000000000000000000000000000000000000600052602260045260246000fd5b600060028204905060018216806200021a57607f821691505b60208210810362000230576200022f620001d2565b5b50919050565b60008190508160005260206000209050919050565b60006020601f8301049050919050565b600082821b905092915050565b6000600883026200029a7fffffffffffffffffffffffffffffffffffffffffffffffffffffffffffffffff826200025b565b620002a686836200025b565b95508019841693508086168417925050509392505050565b6000819050919050565b6000819050919050565b6000620002f3620002ed620002e784620002be565b620002c8565b620002be565b9050919050565b6000819050919050565b6200030f83620002d2565b620003276200031e82620002fa565b84845462000268565b825550505050565b600090565b6200033e6200032f565b6200034b81848462000304565b505050565b5b8181101562000373576200036760008262000334565b60018101905062000351565b5050565b601f821115620003c2576200038c8162000236565b62000397846200024b565b81016020851015620003a7578190505b620003bf620003b6856200024b565b83018262000350565b50505b505050565b600082821c905092915050565b6000620003e760001984600802620003c7565b1980831691505092915050565b6000620004028383620003d4565b9150826002028217905092915050565b6200041d8262000198565b67ffffffffffffffff811115620004395762000438620001a3565b5b62000445825462000201565b6200045282828562000377565b600060209050601f8311600181146200048a576000841562000475578287015190505b620004818582620003f4565b865550620004f1565b601f1984166200049a8662000236565b60005b82811015620004c4578489015182556001820191506020850194506020810190506200049d565b86831015620004e45784890151620004e0601f891682620003d4565b8355505b6001600288020188555050505b505050505050565b61566a80620005096000396000f3fe6080604052600436106101f85760003560e01c80635f5f8f491161010d578063a22cb465116100a0578063e8484f851161006f578063e8484f85146107ad578063e985e9c5146107d6578063edfd499514610813578063f2fde38b14610850578063fd9e9c7714610879576101f8565b8063a22cb465146106f3578063b88d4fde1461071c578063c87b56dd14610745578063d547cfb714610782576101f8565b8063715018a6116100dc578063715018a61461064957806389d5feee146106605780638da5cb5b1461069d57806395d89b41146106c8576101f8565b80635f5f8f49146105555780636352211e1461059257806367879c1c146105cf57806370a082311461060c576101f8565b80631c42ae2c116101905780633b3b047f1161015f5780633b3b047f1461046057806342842e0e146104895780634b490649146104b25780634f6ccce7146104ef5780635aca7c071461052c576101f8565b80631c42ae2c146103a157806323b872dd146103de578063243adbdd146104075780632f745c5914610423576101f8565b8063081812fc116101cc578063081812fc146102e5578063095ea7b3146103225780630c4f65bd1461034b57806318160ddd14610376576101f8565b8062481c92146101fd5780630178fe3f1461024057806301ffc9a71461027d57806306fdde03146102ba575b600080fd5b34801561020957600080fd5b50610224600480360381019061021f9190613a61565b6108b6565b6040516102379796959493929190613b6e565b60405180910390f35b34801561024c57600080fd5b5061026760048036038101906102629190613a61565b610b38565b6040516102749190613d12565b60405180910390f35b34801561028957600080fd5b506102a4600480360381019061029f9190613d8c565b610e17565b6040516102b19190613dd4565b60405180910390f35b3480156102c657600080fd5b506102cf610e29565b6040516102dc9190613def565b60405180910390f35b3480156102f157600080fd5b5061030c60048036038101906103079190613a61565b610ebb565b6040516103199190613e11565b60405180910390f35b34801561032e57600080fd5b5061034960048036038101906103449190613e58565b610f01565b005b34801561035757600080fd5b50610360611018565b60405161036d9190613e11565b60405180910390f35b34801561038257600080fd5b5061038b611027565b6040516103989190613e98565b60405180910390f35b3480156103ad57600080fd5b506103c860048036038101906103c39190613a61565b611034565b6040516103d59190613dd4565b60405180910390f35b3480156103ea57600080fd5b5061040560048036038101906104009190613eb3565b611054565b005b610421600480360381019061041c9190613a61565b6110b4565b005b34801561042f57600080fd5b5061044a60048036038101906104459190613e58565b611360565b6040516104579190613e98565b60405180910390f35b34801561046c57600080fd5b5061048760048036038101906104829190613e58565b611405565b005b34801561049557600080fd5b506104b060048036038101906104ab9190613eb3565b611557565b005b3480156104be57600080fd5b506104d960048036038101906104d4919061403b565b611577565b6040516104e69190613e98565b60405180910390f35b3480156104fb57600080fd5b5061051660048036038101906105119190613a61565b611799565b6040516105239190613e98565b60405180910390f35b34801561053857600080fd5b50610553600480360381019061054e9190613e58565b61180a565b005b34801561056157600080fd5b5061057c60048036038101906105779190613e58565b611930565b6040516105899190613e98565b60405180910390f35b34801561059e57600080fd5b506105b960048036038101906105b49190613a61565b611961565b6040516105c69190613e11565b60405180910390f35b3480156105db57600080fd5b506105f660048036038101906105f19190613e58565b6119e7565b6040516106039190613e98565b60405180910390f35b34801561061857600080fd5b50610633600480360381019061062e9190614126565b611a18565b6040516106409190613e98565b60405180910390f35b34801561065557600080fd5b5061065e611acf565b005b34801561066c57600080fd5b5061068760048036038101906106829190614126565b611ae3565b6040516106949190614202565b60405180910390f35b3480156106a957600080fd5b506106b2611b7a565b6040516106bf9190613e11565b60405180910390f35b3480156106d457600080fd5b506106dd611ba4565b6040516106ea9190613def565b60405180910390f35b3480156106ff57600080fd5b5061071a60048036038101906107159190614250565b611c36565b005b34801561072857600080fd5b50610743600480360381019061073e9190614331565b611c4c565b005b34801561075157600080fd5b5061076c60048036038101906107679190613a61565b611cae565b6040516107799190613def565b60405180910390f35b34801561078e57600080fd5b50610797611cc0565b6040516107a49190613def565b60405180910390f35b3480156107b957600080fd5b506107d460048036038101906107cf9190613a61565b611d4e565b005b3480156107e257600080fd5b506107fd60048036038101906107f891906143b4565b611eca565b60405161080a9190613dd4565b60405180910390f35b34801561081f57600080fd5b5061083a600480360381019061083591906143f4565b611f5e565b6040516108479190613def565b60405180910390f35b34801561085c57600080fd5b5061087760048036038101906108729190614126565b612123565b005b34801561088557600080fd5b506108a0600480360381019061089b9190614126565b6121a6565b6040516108ad9190614202565b60405180910390f35b600e6020528060005260406000206000915090508060000160009054906101000a900473ffffffffffffffffffffffffffffffffffffffff169080600101549080600201805461090590614520565b80601f016020809104026020016040519081016040528092919081815260200182805461093190614520565b801561097e5780601f106109535761010080835404028352916020019161097e565b820191906000526020600020905b81548152906001019060200180831161096157829003601f168201915b50505050509080600301549080600401805461099990614520565b80601f01602080910402602001604051908101604052809291908181526020018280546109c590614520565b8015610a125780601f106109e757610100808354040283529160200191610a12565b820191906000526020600020905b8154815290600101906020018083116109f557829003601f168201915b505050505090806005018054610a2790614520565b80601f0160208091040260200160405190810160405280929190818152602001828054610a5390614520565b8015610aa05780601f10610a7557610100808354040283529160200191610aa0565b820191906000526020600020905b815481529060010190602001808311610a8357829003601f168201915b505050505090806006018054610ab590614520565b80601f0160208091040260200160405190810160405280929190818152602001828054610ae190614520565b8015610b2e5780601f10610b0357610100808354040283529160200191610b2e565b820191906000526020600020905b815481529060010190602001808311610b1157829003601f168201915b5050505050905087565b610b406139c4565b600e60008381526020019081526020016000206040518060e00160405290816000820160009054906101000a900473ffffffffffffffffffffffffffffffffffffffff1673ffffffffffffffffffffffffffffffffffffffff1673ffffffffffffffffffffffffffffffffffffffff16815260200160018201548152602001600282018054610bce90614520565b80601f0160208091040260200160405190810160405280929190818152602001828054610bfa90614520565b8015610c475780601f10610c1c57610100808354040283529160200191610c47565b820191906000526020600020905b815481529060010190602001808311610c2a57829003601f168201915b5050505050815260200160038201548152602001600482018054610c6a90614520565b80601f0160208091040260200160405190810160405280929190818152602001828054610c9690614520565b8015610ce35780601f10610cb857610100808354040283529160200191610ce3565b820191906000526020600020905b815481529060010190602001808311610cc657829003601f168201915b50505050508152602001600582018054610cfc90614520565b80601f0160208091040260200160405190810160405280929190818152602001828054610d2890614520565b8015610d755780601f10610d4a57610100808354040283529160200191610d75565b820191906000526020600020905b815481529060010190602001808311610d5857829003601f168201915b50505050508152602001600682018054610d8e90614520565b80601f0160208091040260200160405190810160405280929190818152602001828054610dba90614520565b8015610e075780601f10610ddc57610100808354040283529160200191610e07565b820191906000526020600020905b815481529060010190602001808311610dea57829003601f168201915b5050505050815250509050919050565b6000610e228261223d565b9050919050565b606060008054610e3890614520565b80601f0160208091040260200160405190810160405280929190818152602001828054610e6490614520565b8015610eb15780601f10610e8657610100808354040283529160200191610eb1565b820191906000526020600020905b815481529060010190602001808311610e9457829003601f168201915b5050505050905090565b6000610ec68261229e565b6004600083815260200190815260200160002060009054906101000a900473ffffffffffffffffffffffffffffffffffffffff169050919050565b6000610f0c82611961565b90508073ffffffffffffffffffffffffffffffffffffffff168373ffffffffffffffffffffffffffffffffffffffff1603610f7c576040517f08c379a0000000000000000000000000000000000000000000000000000000008152600401610f73906145c3565b60405180910390fd5b8073ffffffffffffffffffffffffffffffffffffffff16610f9b6122e9565b73ffffffffffffffffffffffffffffffffffffffff161480610fca5750610fc981610fc46122e9565b611eca565b5b611009576040517f08c379a000000000000000000000000000000000000000000000000000000000815260040161100090614655565b60405180910390fd5b61101383836122f1565b505050565b6000611022611b7a565b905090565b6000600880549050905090565b60116020528060005260406000206000915054906101000a900460ff1681565b61106561105f6122e9565b826123aa565b6110a4576040517f08c379a000000000000000000000000000000000000000000000000000000000815260040161109b906146e7565b60405180910390fd5b6110af83838361243f565b505050565b6110bd81612738565b6110fc576040517f08c379a00000000000000000000000000000000000000000000000000000000081526004016110f390614753565b60405180910390fd5b600115156011600083815260200190815260200160002060009054906101000a900460ff16151514611163576040517f08c379a000000000000000000000000000000000000000000000000000000000815260040161115a906147bf565b60405180910390fd5b6000600e60008381526020019081526020016000206003015490508034146111c0576040517f08c379a00000000000000000000000000000000000000000000000000000000081526004016111b79061482b565b60405180910390fd5b60006111cb83612779565b90506111d881338561243f565b6111e28184611405565b6111ec818461180a565b60006011600085815260200190815260200160002060006101000a81548160ff021916908315150217905550601060003373ffffffffffffffffffffffffffffffffffffffff1673ffffffffffffffffffffffffffffffffffffffff1681526020019081526020016000208390806001815401808255809150506001900390600052602060002001600090919091909150556000600e60008581526020019081526020016000209050338160000160006101000a81548173ffffffffffffffffffffffffffffffffffffffff021916908373ffffffffffffffffffffffffffffffffffffffff1602179055508173ffffffffffffffffffffffffffffffffffffffff166108fc349081150290604051600060405180830381858888f1935050505015801561131e573d6000803e3d6000fd5b507feb031af2564135b22453615bb84e2121202531cf129c496225b550a3b89172258233866040516113529392919061484b565b60405180910390a150505050565b600061136b83611a18565b82106113ac576040517f08c379a00000000000000000000000000000000000000000000000000000000081526004016113a3906148f4565b60405180910390fd5b600660008473ffffffffffffffffffffffffffffffffffffffff1673ffffffffffffffffffffffffffffffffffffffff168152602001908152602001600020600083815260200190815260200160002054905092915050565b6000600f60008473ffffffffffffffffffffffffffffffffffffffff1673ffffffffffffffffffffffffffffffffffffffff168152602001908152602001600020905060005b8180549050811015611550578282828154811061146b5761146a614914565b5b90600052602060002001540361153d576001828054905061148c9190614972565b8110156114e35781600183805490506114a59190614972565b815481106114b6576114b5614914565b5b90600052602060002001548282815481106114d4576114d3614914565b5b90600052602060002001819055505b818054806114f4576114f36149a6565b5b6001900381819060005260206000200160009055905560006011600085815260200190815260200160002060006101000a81548160ff0219169083151502179055505050611553565b8080611548906149d5565b91505061144b565b50505b5050565b61157283838360405180602001604052806000815250611c4c565b505050565b6000611583600c6127b6565b600061158f600c6127cc565b90506040518060e001604052803373ffffffffffffffffffffffffffffffffffffffff16815260200182815260200188815260200187815260200186815260200185815260200184815250600e600083815260200190815260200160002060008201518160000160006101000a81548173ffffffffffffffffffffffffffffffffffffffff021916908373ffffffffffffffffffffffffffffffffffffffff1602179055506020820151816001015560408201518160020190816116539190614bc9565b506060820151816003015560808201518160040190816116739190614bc9565b5060a08201518160050190816116899190614bc9565b5060c082015181600601908161169f9190614bc9565b509050506116ad33826127da565b6116b781846127f8565b601060003373ffffffffffffffffffffffffffffffffffffffff1673ffffffffffffffffffffffffffffffffffffffff16815260200190815260200160002081908060018154018082558091505060019003906000526020600020016000909190919091505560006011600083815260200190815260200160002060006101000a81548160ff0219169083151502179055507fa0da3e3615c35bffbb519c663753674cecf497b08a0042c2c6b5a6b435529f46338289898989896040516117849796959493929190613b6e565b60405180910390a18091505095945050505050565b60006117a3611027565b82106117e4576040517f08c379a00000000000000000000000000000000000000000000000000000000081526004016117db90614d0d565b60405180910390fd5b600882815481106117f8576117f7614914565b5b90600052602060002001549050919050565b6000601060008473ffffffffffffffffffffffffffffffffffffffff1673ffffffffffffffffffffffffffffffffffffffff168152602001908152602001600020905060005b818054905081101561192957828282815481106118705761186f614914565b5b90600052602060002001540361191657600182805490506118919190614972565b8110156118e85781600183805490506118aa9190614972565b815481106118bb576118ba614914565b5b90600052602060002001548282815481106118d9576118d8614914565b5b90600052602060002001819055505b818054806118f9576118f86149a6565b5b60019003818190600052602060002001600090559055505061192c565b8080611921906149d5565b915050611850565b50505b5050565b600f602052816000526040600020818154811061194c57600080fd5b90600052602060002001600091509150505481565b60008061196d83612779565b9050600073ffffffffffffffffffffffffffffffffffffffff168173ffffffffffffffffffffffffffffffffffffffff16036119de576040517f08c379a00000000000000000000000000000000000000000000000000000000081526004016119d590614d79565b60405180910390fd5b80915050919050565b60106020528160005260406000208181548110611a0357600080fd5b90600052602060002001600091509150505481565b60008073ffffffffffffffffffffffffffffffffffffffff168273ffffffffffffffffffffffffffffffffffffffff1603611a88576040517f08c379a0000000000000000000000000000000000000000000000000000000008152600401611a7f90614e0b565b60405180910390fd5b600360008373ffffffffffffffffffffffffffffffffffffffff1673ffffffffffffffffffffffffffffffffffffffff168152602001908152602001600020549050919050565b611ad761289c565b611ae1600061291a565b565b6060601060008373ffffffffffffffffffffffffffffffffffffffff1673ffffffffffffffffffffffffffffffffffffffff168152602001908152602001600020805480602002602001604051908101604052809291908181526020018280548015611b6e57602002820191906000526020600020905b815481526020019060010190808311611b5a575b50505050509050919050565b6000600a60009054906101000a900473ffffffffffffffffffffffffffffffffffffffff16905090565b606060018054611bb390614520565b80601f0160208091040260200160405190810160405280929190818152602001828054611bdf90614520565b8015611c2c5780601f10611c0157610100808354040283529160200191611c2c565b820191906000526020600020905b815481529060010190602001808311611c0f57829003601f168201915b5050505050905090565b611c48611c416122e9565b83836129e0565b5050565b611c5d611c576122e9565b836123aa565b611c9c576040517f08c379a0000000000000000000000000000000000000000000000000000000008152600401611c93906146e7565b60405180910390fd5b611ca884848484612b4c565b50505050565b6060611cb982612ba8565b9050919050565b600d8054611ccd90614520565b80601f0160208091040260200160405190810160405280929190818152602001828054611cf990614520565b8015611d465780601f10611d1b57610100808354040283529160200191611d46565b820191906000526020600020905b815481529060010190602001808311611d2957829003601f168201915b505050505081565b3373ffffffffffffffffffffffffffffffffffffffff16611d6e82612779565b73ffffffffffffffffffffffffffffffffffffffff1614611dc4576040517f08c379a0000000000000000000000000000000000000000000000000000000008152600401611dbb90614e9d565b60405180910390fd5b600115156011600083815260200190815260200160002060009054906101000a900460ff16151503611e2b576040517f08c379a0000000000000000000000000000000000000000000000000000000008152600401611e2290614f09565b60405180910390fd5b611e3530826122f1565b600f60003373ffffffffffffffffffffffffffffffffffffffff1673ffffffffffffffffffffffffffffffffffffffff16815260200190815260200160002081908060018154018082558091505060019003906000526020600020016000909190919091505560016011600083815260200190815260200160002060006101000a81548160ff02191690831515021790555050565b6000600560008473ffffffffffffffffffffffffffffffffffffffff1673ffffffffffffffffffffffffffffffffffffffff16815260200190815260200160002060008373ffffffffffffffffffffffffffffffffffffffff1673ffffffffffffffffffffffffffffffffffffffff16815260200190815260200160002060009054906101000a900460ff16905092915050565b60606000600e60008981526020019081526020016000206003015411611fb9576040517f08c379a0000000000000000000000000000000000000000000000000000000008152600401611fb090614753565b60405180910390fd5b6040518060e001604052803373ffffffffffffffffffffffffffffffffffffffff16815260200188815260200187815260200186815260200185815260200184815260200183815250600e600089815260200190815260200160002060008201518160000160006101000a81548173ffffffffffffffffffffffffffffffffffffffff021916908373ffffffffffffffffffffffffffffffffffffffff16021790555060208201518160010155604082015181600201908161207b9190614bc9565b5060608201518160030155608082015181600401908161209b9190614bc9565b5060a08201518160050190816120b19190614bc9565b5060c08201518160060190816120c79190614bc9565b509050506120d587836127f8565b7fbabf078520c4623b6442838ad2f6a188bae6e6e3909a976e1894fca920c7034287878787878760405161210e96959493929190614f29565b60405180910390a18190509695505050505050565b61212b61289c565b600073ffffffffffffffffffffffffffffffffffffffff168173ffffffffffffffffffffffffffffffffffffffff160361219a576040517f08c379a000000000000000000000000000000000000000000000000000000000815260040161219190615018565b60405180910390fd5b6121a38161291a565b50565b6060600f60008373ffffffffffffffffffffffffffffffffffffffff1673ffffffffffffffffffffffffffffffffffffffff16815260200190815260200160002080548060200260200160405190810160405280929190818152602001828054801561223157602002820191906000526020600020905b81548152602001906001019080831161221d575b50505050509050919050565b6000634906490660e01b7bffffffffffffffffffffffffffffffffffffffffffffffffffffffff1916827bffffffffffffffffffffffffffffffffffffffffffffffffffffffff19161480612297575061229682612cba565b5b9050919050565b6122a781612738565b6122e6576040517f08c379a00000000000000000000000000000000000000000000000000000000081526004016122dd90614d79565b60405180910390fd5b50565b600033905090565b816004600083815260200190815260200160002060006101000a81548173ffffffffffffffffffffffffffffffffffffffff021916908373ffffffffffffffffffffffffffffffffffffffff160217905550808273ffffffffffffffffffffffffffffffffffffffff1661236483611961565b73ffffffffffffffffffffffffffffffffffffffff167f8c5be1e5ebec7d5bd14f71427d1e84f3dd0314c0f7b2291e5b200ac8c7c3b92560405160405180910390a45050565b6000806123b683611961565b90508073ffffffffffffffffffffffffffffffffffffffff168473ffffffffffffffffffffffffffffffffffffffff1614806123f857506123f78185611eca565b5b8061243657508373ffffffffffffffffffffffffffffffffffffffff1661241e84610ebb565b73ffffffffffffffffffffffffffffffffffffffff16145b91505092915050565b8273ffffffffffffffffffffffffffffffffffffffff1661245f82611961565b73ffffffffffffffffffffffffffffffffffffffff16146124b5576040517f08c379a00000000000000000000000000000000000000000000000000000000081526004016124ac906150aa565b60405180910390fd5b600073ffffffffffffffffffffffffffffffffffffffff168273ffffffffffffffffffffffffffffffffffffffff1603612524576040517f08c379a000000000000000000000000000000000000000000000000000000000815260040161251b9061513c565b60405180910390fd5b6125318383836001612d34565b8273ffffffffffffffffffffffffffffffffffffffff1661255182611961565b73ffffffffffffffffffffffffffffffffffffffff16146125a7576040517f08c379a000000000000000000000000000000000000000000000000000000000815260040161259e906150aa565b60405180910390fd5b6004600082815260200190815260200160002060006101000a81549073ffffffffffffffffffffffffffffffffffffffff02191690556001600360008573ffffffffffffffffffffffffffffffffffffffff1673ffffffffffffffffffffffffffffffffffffffff168152602001908152602001600020600082825403925050819055506001600360008473ffffffffffffffffffffffffffffffffffffffff1673ffffffffffffffffffffffffffffffffffffffff16815260200190815260200160002060008282540192505081905550816002600083815260200190815260200160002060006101000a81548173ffffffffffffffffffffffffffffffffffffffff021916908373ffffffffffffffffffffffffffffffffffffffff160217905550808273ffffffffffffffffffffffffffffffffffffffff168473ffffffffffffffffffffffffffffffffffffffff167fddf252ad1be2c89b69c2b068fc378daa952ba7f163c4a11628f55a4df523b3ef60405160405180910390a46127338383836001612d46565b505050565b60008073ffffffffffffffffffffffffffffffffffffffff1661275a83612779565b73ffffffffffffffffffffffffffffffffffffffff1614159050919050565b60006002600083815260200190815260200160002060009054906101000a900473ffffffffffffffffffffffffffffffffffffffff169050919050565b6001816000016000828254019250508190555050565b600081600001549050919050565b6127f4828260405180602001604052806000815250612d4c565b5050565b61280182612738565b612840576040517f08c379a0000000000000000000000000000000000000000000000000000000008152600401612837906151ce565b60405180910390fd5b80600b600084815260200190815260200160002090816128609190614bc9565b507ff8e1a15aba9398e019f0b49df1a4fde98ee17ae345cb5f6b5e2c27f5033e8ce7826040516128909190613e98565b60405180910390a15050565b6128a46122e9565b73ffffffffffffffffffffffffffffffffffffffff166128c2611b7a565b73ffffffffffffffffffffffffffffffffffffffff1614612918576040517f08c379a000000000000000000000000000000000000000000000000000000000815260040161290f9061523a565b60405180910390fd5b565b6000600a60009054906101000a900473ffffffffffffffffffffffffffffffffffffffff16905081600a60006101000a81548173ffffffffffffffffffffffffffffffffffffffff021916908373ffffffffffffffffffffffffffffffffffffffff1602179055508173ffffffffffffffffffffffffffffffffffffffff168173ffffffffffffffffffffffffffffffffffffffff167f8be0079c531659141344cd1fd0a4f28419497f9722a3daafe3b4186f6b6457e060405160405180910390a35050565b8173ffffffffffffffffffffffffffffffffffffffff168373ffffffffffffffffffffffffffffffffffffffff1603612a4e576040517f08c379a0000000000000000000000000000000000000000000000000000000008152600401612a45906152a6565b60405180910390fd5b80600560008573ffffffffffffffffffffffffffffffffffffffff1673ffffffffffffffffffffffffffffffffffffffff16815260200190815260200160002060008473ffffffffffffffffffffffffffffffffffffffff1673ffffffffffffffffffffffffffffffffffffffff16815260200190815260200160002060006101000a81548160ff0219169083151502179055508173ffffffffffffffffffffffffffffffffffffffff168373ffffffffffffffffffffffffffffffffffffffff167f17307eab39ab6107e8899845ad3d59bd9653f200f220920489ca2b5937696c3183604051612b3f9190613dd4565b60405180910390a3505050565b612b5784848461243f565b612b6384848484612da7565b612ba2576040517f08c379a0000000000000000000000000000000000000000000000000000000008152600401612b9990615338565b60405180910390fd5b50505050565b6060612bb38261229e565b6000600b60008481526020019081526020016000208054612bd390614520565b80601f0160208091040260200160405190810160405280929190818152602001828054612bff90614520565b8015612c4c5780601f10612c2157610100808354040283529160200191612c4c565b820191906000526020600020905b815481529060010190602001808311612c2f57829003601f168201915b505050505090506000612c5d612f2e565b90506000815103612c72578192505050612cb5565b600082511115612ca7578082604051602001612c8f929190615394565b60405160208183030381529060405292505050612cb5565b612cb084612f45565b925050505b919050565b60007f780e9d63000000000000000000000000000000000000000000000000000000007bffffffffffffffffffffffffffffffffffffffffffffffffffffffff1916827bffffffffffffffffffffffffffffffffffffffffffffffffffffffff19161480612d2d5750612d2c82612fad565b5b9050919050565b612d408484848461308f565b50505050565b50505050565b612d5683836131ed565b612d636000848484612da7565b612da2576040517f08c379a0000000000000000000000000000000000000000000000000000000008152600401612d9990615338565b60405180910390fd5b505050565b6000612dc88473ffffffffffffffffffffffffffffffffffffffff1661340a565b15612f21578373ffffffffffffffffffffffffffffffffffffffff1663150b7a02612df16122e9565b8786866040518563ffffffff1660e01b8152600401612e13949392919061540d565b6020604051808303816000875af1925050508015612e4f57506040513d601f19601f82011682018060405250810190612e4c919061546e565b60015b612ed1573d8060008114612e7f576040519150601f19603f3d011682016040523d82523d6000602084013e612e84565b606091505b506000815103612ec9576040517f08c379a0000000000000000000000000000000000000000000000000000000008152600401612ec090615338565b60405180910390fd5b805181602001fd5b63150b7a0260e01b7bffffffffffffffffffffffffffffffffffffffffffffffffffffffff1916817bffffffffffffffffffffffffffffffffffffffffffffffffffffffff191614915050612f26565b600190505b949350505050565b606060405180602001604052806000815250905090565b6060612f508261229e565b6000612f5a612f2e565b90506000815111612f7a5760405180602001604052806000815250612fa5565b80612f848461342d565b604051602001612f95929190615394565b6040516020818303038152906040525b915050919050565b60007f80ac58cd000000000000000000000000000000000000000000000000000000007bffffffffffffffffffffffffffffffffffffffffffffffffffffffff1916827bffffffffffffffffffffffffffffffffffffffffffffffffffffffff1916148061307857507f5b5e139f000000000000000000000000000000000000000000000000000000007bffffffffffffffffffffffffffffffffffffffffffffffffffffffff1916827bffffffffffffffffffffffffffffffffffffffffffffffffffffffff1916145b806130885750613087826134fb565b5b9050919050565b61309b84848484613565565b60018111156130df576040517f08c379a00000000000000000000000000000000000000000000000000000000081526004016130d69061550d565b60405180910390fd5b6000829050600073ffffffffffffffffffffffffffffffffffffffff168573ffffffffffffffffffffffffffffffffffffffff1603613126576131218161356b565b613165565b8373ffffffffffffffffffffffffffffffffffffffff168573ffffffffffffffffffffffffffffffffffffffff16146131645761316385826135b4565b5b5b600073ffffffffffffffffffffffffffffffffffffffff168473ffffffffffffffffffffffffffffffffffffffff16036131a7576131a281613721565b6131e6565b8473ffffffffffffffffffffffffffffffffffffffff168473ffffffffffffffffffffffffffffffffffffffff16146131e5576131e484826137f2565b5b5b5050505050565b600073ffffffffffffffffffffffffffffffffffffffff168273ffffffffffffffffffffffffffffffffffffffff160361325c576040517f08c379a000000000000000000000000000000000000000000000000000000000815260040161325390615579565b60405180910390fd5b61326581612738565b156132a5576040517f08c379a000000000000000000000000000000000000000000000000000000000815260040161329c906155e5565b60405180910390fd5b6132b3600083836001612d34565b6132bc81612738565b156132fc576040517f08c379a00000000000000000000000000000000000000000000000000000000081526004016132f3906155e5565b60405180910390fd5b6001600360008473ffffffffffffffffffffffffffffffffffffffff1673ffffffffffffffffffffffffffffffffffffffff16815260200190815260200160002060008282540192505081905550816002600083815260200190815260200160002060006101000a81548173ffffffffffffffffffffffffffffffffffffffff021916908373ffffffffffffffffffffffffffffffffffffffff160217905550808273ffffffffffffffffffffffffffffffffffffffff16600073ffffffffffffffffffffffffffffffffffffffff167fddf252ad1be2c89b69c2b068fc378daa952ba7f163c4a11628f55a4df523b3ef60405160405180910390a4613406600083836001612d46565b5050565b6000808273ffffffffffffffffffffffffffffffffffffffff163b119050919050565b60606000600161343c84613871565b01905060008167ffffffffffffffff81111561345b5761345a613f10565b5b6040519080825280601f01601f19166020018201604052801561348d5781602001600182028036833780820191505090505b509050600082602001820190505b6001156134f0578080600190039150507f3031323334353637383961626364656600000000000000000000000000000000600a86061a8153600a85816134e4576134e3615605565b5b0494506000850361349b575b819350505050919050565b60007f01ffc9a7000000000000000000000000000000000000000000000000000000007bffffffffffffffffffffffffffffffffffffffffffffffffffffffff1916827bffffffffffffffffffffffffffffffffffffffffffffffffffffffff1916149050919050565b50505050565b6008805490506009600083815260200190815260200160002081905550600881908060018154018082558091505060019003906000526020600020016000909190919091505550565b600060016135c184611a18565b6135cb9190614972565b90506000600760008481526020019081526020016000205490508181146136b0576000600660008673ffffffffffffffffffffffffffffffffffffffff1673ffffffffffffffffffffffffffffffffffffffff168152602001908152602001600020600084815260200190815260200160002054905080600660008773ffffffffffffffffffffffffffffffffffffffff1673ffffffffffffffffffffffffffffffffffffffff168152602001908152602001600020600084815260200190815260200160002081905550816007600083815260200190815260200160002081905550505b6007600084815260200190815260200160002060009055600660008573ffffffffffffffffffffffffffffffffffffffff1673ffffffffffffffffffffffffffffffffffffffff16815260200190815260200160002060008381526020019081526020016000206000905550505050565b600060016008805490506137359190614972565b905060006009600084815260200190815260200160002054905060006008838154811061376557613764614914565b5b90600052602060002001549050806008838154811061378757613786614914565b5b9060005260206000200181905550816009600083815260200190815260200160002081905550600960008581526020019081526020016000206000905560088054806137d6576137d56149a6565b5b6001900381819060005260206000200160009055905550505050565b60006137fd83611a18565b905081600660008573ffffffffffffffffffffffffffffffffffffffff1673ffffffffffffffffffffffffffffffffffffffff168152602001908152602001600020600083815260200190815260200160002081905550806007600084815260200190815260200160002081905550505050565b600080600090507a184f03e93ff9f4daa797ed6e38ed64bf6a1f01000000000000000083106138cf577a184f03e93ff9f4daa797ed6e38ed64bf6a1f01000000000000000083816138c5576138c4615605565b5b0492506040810190505b6d04ee2d6d415b85acef8100000000831061390c576d04ee2d6d415b85acef8100000000838161390257613901615605565b5b0492506020810190505b662386f26fc10000831061393b57662386f26fc10000838161393157613930615605565b5b0492506010810190505b6305f5e1008310613964576305f5e100838161395a57613959615605565b5b0492506008810190505b612710831061398957612710838161397f5761397e615605565b5b0492506004810190505b606483106139ac57606483816139a2576139a1615605565b5b0492506002810190505b600a83106139bb576001810190505b80915050919050565b6040518060e00160405280600073ffffffffffffffffffffffffffffffffffffffff1681526020016000815260200160608152602001600081526020016060815260200160608152602001606081525090565b6000604051905090565b600080fd5b600080fd5b6000819050919050565b613a3e81613a2b565b8114613a4957600080fd5b50565b600081359050613a5b81613a35565b92915050565b600060208284031215613a7757613a76613a21565b5b6000613a8584828501613a4c565b91505092915050565b600073ffffffffffffffffffffffffffffffffffffffff82169050919050565b6000613ab982613a8e565b9050919050565b613ac981613aae565b82525050565b613ad881613a2b565b82525050565b600081519050919050565b600082825260208201905092915050565b60005b83811015613b18578082015181840152602081019050613afd565b60008484015250505050565b6000601f19601f8301169050919050565b6000613b4082613ade565b613b4a8185613ae9565b9350613b5a818560208601613afa565b613b6381613b24565b840191505092915050565b600060e082019050613b83600083018a613ac0565b613b906020830189613acf565b8181036040830152613ba28188613b35565b9050613bb16060830187613acf565b8181036080830152613bc38186613b35565b905081810360a0830152613bd78185613b35565b905081810360c0830152613beb8184613b35565b905098975050505050505050565b613c0281613aae565b82525050565b613c1181613a2b565b82525050565b600082825260208201905092915050565b6000613c3382613ade565b613c3d8185613c17565b9350613c4d818560208601613afa565b613c5681613b24565b840191505092915050565b600060e083016000830151613c796000860182613bf9565b506020830151613c8c6020860182613c08565b5060408301518482036040860152613ca48282613c28565b9150506060830151613cb96060860182613c08565b5060808301518482036080860152613cd18282613c28565b91505060a083015184820360a0860152613ceb8282613c28565b91505060c083015184820360c0860152613d058282613c28565b9150508091505092915050565b60006020820190508181036000830152613d2c8184613c61565b905092915050565b60007fffffffff0000000000000000000000000000000000000000000000000000000082169050919050565b613d6981613d34565b8114613d7457600080fd5b50565b600081359050613d8681613d60565b92915050565b600060208284031215613da257613da1613a21565b5b6000613db084828501613d77565b91505092915050565b60008115159050919050565b613dce81613db9565b82525050565b6000602082019050613de96000830184613dc5565b92915050565b60006020820190508181036000830152613e098184613b35565b905092915050565b6000602082019050613e266000830184613ac0565b92915050565b613e3581613aae565b8114613e4057600080fd5b50565b600081359050613e5281613e2c565b92915050565b60008060408385031215613e6f57613e6e613a21565b5b6000613e7d85828601613e43565b9250506020613e8e85828601613a4c565b9150509250929050565b6000602082019050613ead6000830184613acf565b92915050565b600080600060608486031215613ecc57613ecb613a21565b5b6000613eda86828701613e43565b9350506020613eeb86828701613e43565b9250506040613efc86828701613a4c565b9150509250925092565b600080fd5b600080fd5b7f4e487b7100000000000000000000000000000000000000000000000000000000600052604160045260246000fd5b613f4882613b24565b810181811067ffffffffffffffff82111715613f6757613f66613f10565b5b80604052505050565b6000613f7a613a17565b9050613f868282613f3f565b919050565b600067ffffffffffffffff821115613fa657613fa5613f10565b5b613faf82613b24565b9050602081019050919050565b82818337600083830152505050565b6000613fde613fd984613f8b565b613f70565b905082815260208101848484011115613ffa57613ff9613f0b565b5b614005848285613fbc565b509392505050565b600082601f83011261402257614021613f06565b5b8135614032848260208601613fcb565b91505092915050565b600080600080600060a0868803121561405757614056613a21565b5b600086013567ffffffffffffffff81111561407557614074613a26565b5b6140818882890161400d565b955050602061409288828901613a4c565b945050604086013567ffffffffffffffff8111156140b3576140b2613a26565b5b6140bf8882890161400d565b935050606086013567ffffffffffffffff8111156140e0576140df613a26565b5b6140ec8882890161400d565b925050608086013567ffffffffffffffff81111561410d5761410c613a26565b5b6141198882890161400d565b9150509295509295909350565b60006020828403121561413c5761413b613a21565b5b600061414a84828501613e43565b91505092915050565b600081519050919050565b600082825260208201905092915050565b6000819050602082019050919050565b600061418b8383613c08565b60208301905092915050565b6000602082019050919050565b60006141af82614153565b6141b9818561415e565b93506141c48361416f565b8060005b838110156141f55781516141dc888261417f565b97506141e783614197565b9250506001810190506141c8565b5085935050505092915050565b6000602082019050818103600083015261421c81846141a4565b905092915050565b61422d81613db9565b811461423857600080fd5b50565b60008135905061424a81614224565b92915050565b6000806040838503121561426757614266613a21565b5b600061427585828601613e43565b92505060206142868582860161423b565b9150509250929050565b600067ffffffffffffffff8211156142ab576142aa613f10565b5b6142b482613b24565b9050602081019050919050565b60006142d46142cf84614290565b613f70565b9050828152602081018484840111156142f0576142ef613f0b565b5b6142fb848285613fbc565b509392505050565b600082601f83011261431857614317613f06565b5b81356143288482602086016142c1565b91505092915050565b6000806000806080858703121561434b5761434a613a21565b5b600061435987828801613e43565b945050602061436a87828801613e43565b935050604061437b87828801613a4c565b925050606085013567ffffffffffffffff81111561439c5761439b613a26565b5b6143a887828801614303565b91505092959194509250565b600080604083850312156143cb576143ca613a21565b5b60006143d985828601613e43565b92505060206143ea85828601613e43565b9150509250929050565b60008060008060008060c0878903121561441157614410613a21565b5b600061441f89828a01613a4c565b965050602087013567ffffffffffffffff8111156144405761443f613a26565b5b61444c89828a0161400d565b955050604061445d89828a01613a4c565b945050606087013567ffffffffffffffff81111561447e5761447d613a26565b5b61448a89828a0161400d565b935050608087013567ffffffffffffffff8111156144ab576144aa613a26565b5b6144b789828a0161400d565b92505060a087013567ffffffffffffffff8111156144d8576144d7613a26565b5b6144e489828a0161400d565b9150509295509295509295565b7f4e487b7100000000000000000000000000000000000000000000000000000000600052602260045260246000fd5b6000600282049050600182168061453857607f821691505b60208210810361454b5761454a6144f1565b5b50919050565b7f4552433732313a20617070726f76616c20746f2063757272656e74206f776e6560008201527f7200000000000000000000000000000000000000000000000000000000000000602082015250565b60006145ad602183613ae9565b91506145b882614551565b604082019050919050565b600060208201905081810360008301526145dc816145a0565b9050919050565b7f4552433732313a20617070726f76652063616c6c6572206973206e6f7420746f60008201527f6b656e206f776e6572206f7220617070726f76656420666f7220616c6c000000602082015250565b600061463f603d83613ae9565b915061464a826145e3565b604082019050919050565b6000602082019050818103600083015261466e81614632565b9050919050565b7f4552433732313a2063616c6c6572206973206e6f7420746f6b656e206f776e6560008201527f72206f7220617070726f76656400000000000000000000000000000000000000602082015250565b60006146d1602d83613ae9565b91506146dc82614675565b604082019050919050565b60006020820190508181036000830152614700816146c4565b9050919050565b7f546f6b656e20494420646f6573206e6f74206578697374000000000000000000600082015250565b600061473d601783613ae9565b915061474882614707565b602082019050919050565b6000602082019050818103600083015261476c81614730565b9050919050565b7f4e4654206973206e6f74206c697374656420666f722073616c65000000000000600082015250565b60006147a9601a83613ae9565b91506147b482614773565b602082019050919050565b600060208201905081810360008301526147d88161479c565b9050919050565b7f496e636f727265637420616d6f756e742073656e740000000000000000000000600082015250565b6000614815601583613ae9565b9150614820826147df565b602082019050919050565b6000602082019050818103600083015261484481614808565b9050919050565b60006060820190506148606000830186613ac0565b61486d6020830185613ac0565b61487a6040830184613acf565b949350505050565b7f455243373231456e756d657261626c653a206f776e657220696e646578206f7560008201527f74206f6620626f756e6473000000000000000000000000000000000000000000602082015250565b60006148de602b83613ae9565b91506148e982614882565b604082019050919050565b6000602082019050818103600083015261490d816148d1565b9050919050565b7f4e487b7100000000000000000000000000000000000000000000000000000000600052603260045260246000fd5b7f4e487b7100000000000000000000000000000000000000000000000000000000600052601160045260246000fd5b600061497d82613a2b565b915061498883613a2b565b92508282039050818111156149a05761499f614943565b5b92915050565b7f4e487b7100000000000000000000000000000000000000000000000000000000600052603160045260246000fd5b60006149e082613a2b565b91507fffffffffffffffffffffffffffffffffffffffffffffffffffffffffffffffff8203614a1257614a11614943565b5b600182019050919050565b60008190508160005260206000209050919050565b60006020601f8301049050919050565b600082821b905092915050565b600060088302614a7f7fffffffffffffffffffffffffffffffffffffffffffffffffffffffffffffffff82614a42565b614a898683614a42565b95508019841693508086168417925050509392505050565b6000819050919050565b6000614ac6614ac1614abc84613a2b565b614aa1565b613a2b565b9050919050565b6000819050919050565b614ae083614aab565b614af4614aec82614acd565b848454614a4f565b825550505050565b600090565b614b09614afc565b614b14818484614ad7565b505050565b5b81811015614b3857614b2d600082614b01565b600181019050614b1a565b5050565b601f821115614b7d57614b4e81614a1d565b614b5784614a32565b81016020851015614b66578190505b614b7a614b7285614a32565b830182614b19565b50505b505050565b600082821c905092915050565b6000614ba060001984600802614b82565b1980831691505092915050565b6000614bb98383614b8f565b9150826002028217905092915050565b614bd282613ade565b67ffffffffffffffff811115614beb57614bea613f10565b5b614bf58254614520565b614c00828285614b3c565b600060209050601f831160018114614c335760008415614c21578287015190505b614c2b8582614bad565b865550614c93565b601f198416614c4186614a1d565b60005b82811015614c6957848901518255600182019150602085019450602081019050614c44565b86831015614c865784890151614c82601f891682614b8f565b8355505b6001600288020188555050505b505050505050565b7f455243373231456e756d657261626c653a20676c6f62616c20696e646578206f60008201527f7574206f6620626f756e64730000000000000000000000000000000000000000602082015250565b6000614cf7602c83613ae9565b9150614d0282614c9b565b604082019050919050565b60006020820190508181036000830152614d2681614cea565b9050919050565b7f4552433732313a20696e76616c696420746f6b656e2049440000000000000000600082015250565b6000614d63601883613ae9565b9150614d6e82614d2d565b602082019050919050565b60006020820190508181036000830152614d9281614d56565b9050919050565b7f4552433732313a2061646472657373207a65726f206973206e6f74206120766160008201527f6c6964206f776e65720000000000000000000000000000000000000000000000602082015250565b6000614df5602983613ae9565b9150614e0082614d99565b604082019050919050565b60006020820190508181036000830152614e2481614de8565b9050919050565b7f596f7520617265206e6f7420746865206f776e6572206f662074686973204e4660008201527f5400000000000000000000000000000000000000000000000000000000000000602082015250565b6000614e87602183613ae9565b9150614e9282614e2b565b604082019050919050565b60006020820190508181036000830152614eb681614e7a565b9050919050565b7f4e465420697320616c726561647920666f722073616c65000000000000000000600082015250565b6000614ef3601783613ae9565b9150614efe82614ebd565b602082019050919050565b60006020820190508181036000830152614f2281614ee6565b9050919050565b600060c082019050614f3e6000830189613acf565b8181036020830152614f508188613b35565b9050614f5f6040830187613acf565b8181036060830152614f718186613b35565b90508181036080830152614f858185613b35565b905081810360a0830152614f998184613b35565b9050979650505050505050565b7f4f776e61626c653a206e6577206f776e657220697320746865207a65726f206160008201527f6464726573730000000000000000000000000000000000000000000000000000602082015250565b6000615002602683613ae9565b915061500d82614fa6565b604082019050919050565b6000602082019050818103600083015261503181614ff5565b9050919050565b7f4552433732313a207472616e736665722066726f6d20696e636f72726563742060008201527f6f776e6572000000000000000000000000000000000000000000000000000000602082015250565b6000615094602583613ae9565b915061509f82615038565b604082019050919050565b600060208201905081810360008301526150c381615087565b9050919050565b7f4552433732313a207472616e7366657220746f20746865207a65726f2061646460008201527f7265737300000000000000000000000000000000000000000000000000000000602082015250565b6000615126602483613ae9565b9150615131826150ca565b604082019050919050565b6000602082019050818103600083015261515581615119565b9050919050565b7f45524337323155524953746f726167653a2055524920736574206f66206e6f6e60008201527f6578697374656e7420746f6b656e000000000000000000000000000000000000602082015250565b60006151b8602e83613ae9565b91506151c38261515c565b604082019050919050565b600060208201905081810360008301526151e7816151ab565b9050919050565b7f4f776e61626c653a2063616c6c6572206973206e6f7420746865206f776e6572600082015250565b6000615224602083613ae9565b915061522f826151ee565b602082019050919050565b6000602082019050818103600083015261525381615217565b9050919050565b7f4552433732313a20617070726f766520746f2063616c6c657200000000000000600082015250565b6000615290601983613ae9565b915061529b8261525a565b602082019050919050565b600060208201905081810360008301526152bf81615283565b9050919050565b7f4552433732313a207472616e7366657220746f206e6f6e20455243373231526560008201527f63656976657220696d706c656d656e7465720000000000000000000000000000602082015250565b6000615322603283613ae9565b915061532d826152c6565b604082019050919050565b6000602082019050818103600083015261535181615315565b9050919050565b600081905092915050565b600061536e82613ade565b6153788185615358565b9350615388818560208601613afa565b80840191505092915050565b60006153a08285615363565b91506153ac8284615363565b91508190509392505050565b600081519050919050565b600082825260208201905092915050565b60006153df826153b8565b6153e981856153c3565b93506153f9818560208601613afa565b61540281613b24565b840191505092915050565b60006080820190506154226000830187613ac0565b61542f6020830186613ac0565b61543c6040830185613acf565b818103606083015261544e81846153d4565b905095945050505050565b60008151905061546881613d60565b92915050565b60006020828403121561548457615483613a21565b5b600061549284828501615459565b91505092915050565b7f455243373231456e756d657261626c653a20636f6e736563757469766520747260008201527f616e7366657273206e6f7420737570706f727465640000000000000000000000602082015250565b60006154f7603583613ae9565b91506155028261549b565b604082019050919050565b60006020820190508181036000830152615526816154ea565b9050919050565b7f4552433732313a206d696e7420746f20746865207a65726f2061646472657373600082015250565b6000615563602083613ae9565b915061556e8261552d565b602082019050919050565b6000602082019050818103600083015261559281615556565b9050919050565b7f4552433732313a20746f6b656e20616c7265616479206d696e74656400000000600082015250565b60006155cf601c83613ae9565b91506155da82615599565b602082019050919050565b600060208201905081810360008301526155fe816155c2565b9050919050565b7f4e487b7100000000000000000000000000000000000000000000000000000000600052601260045260246000fdfea2646970667358221220b144a63db0ebaf0e284f53db37035e25eb4bb5b3941d9401b40f024476721d3564736f6c63430008120033",
	"immutableReferences": {},
	"source": "// SPDX-License-Identifier: MIT\npragma solidity ^0.8.0;\n\nimport \"@openzeppelin/contracts/token/ERC721/ERC721.sol\";\nimport \"@openzeppelin/contracts/utils/Counters.sol\";\nimport \"@openzeppelin/contracts/token/ERC721/extensions/ERC721URIStorage.sol\";\nimport \"@openzeppelin/contracts/token/ERC721/extensions/ERC721Enumerable.sol\";\nimport \"@openzeppelin/contracts/access/Ownable.sol\";\n\n\n\ncontract NFT is ERC721 ,ERC721Enumerable,Ownable ,ERC721URIStorage{\n    using Counters for Counters.Counter;\n    Counters.Counter private currentTokenId;\n    string public baseTokenURI;\n  \n\n    struct Details{\n        address add;\n        uint tokenId;\n        string name;\n        uint price;\n        string desc;\n        string tokenUri;\n        string metadataTokenUri;\n    } \n\n    mapping(uint => Details) public DetailsOfTokenID;\n    mapping(address => uint[]) public sellingTokenIdsByAddress;\n    mapping(address => uint[]) public TokenIdsByAddress;\n    mapping(uint => bool) public isNftListed;\n\n\n    event mintevent(address addOfSender, uint256 id , string name , uint price,string description,string tokenUri ,string metadataTokenUri);\n    event buyNftEvent(address FromAddress,address toAddreess, uint256 id );\n    event metadataUpdated(uint tokenId, string newName,uint256 newPrice,string newDescription,string newImg,string metadataTokenUri);\n\n    constructor() ERC721(\"NFTTutorial\", \"NFT\") {}\n\n    function _beforeTokenTransfer(address from, address to, uint256 tokenId, uint256 batchSize) internal override(ERC721, ERC721Enumerable)\n    {\n        super._beforeTokenTransfer(from, to, tokenId, batchSize);\n    }\n\n    function supportsInterface(bytes4 interfaceId) public view override(ERC721, ERC721Enumerable,ERC721URIStorage) returns (bool) {\n        return super.supportsInterface(interfaceId);\n    }\n\n    function tokenURI(uint256 tokenId) public view override(ERC721URIStorage, ERC721) returns (string memory) {\n        return super.tokenURI(tokenId);\n    }\n\n    function mintTo(string memory _name, uint _price, string memory _description, string memory _tokenUri ,string memory _metadataTokenUri) public returns (uint256)\n    {\n        currentTokenId.increment();\n        uint256 newItemId = currentTokenId.current();\n        DetailsOfTokenID[newItemId]=Details(msg.sender,newItemId,_name,_price,_description,_tokenUri,_metadataTokenUri);\n        _safeMint(msg.sender, newItemId);\n        _setTokenURI(newItemId, _metadataTokenUri);\n        TokenIdsByAddress[msg.sender].push(newItemId);\n        isNftListed[newItemId]=false;\n        emit mintevent(msg.sender,newItemId,_name,_price,_description,_tokenUri,_metadataTokenUri);\n        return newItemId;\n    }\n\n    function selldata(uint id) public   \n    {\n        require(_ownerOf(id) == msg.sender, \"You are not the owner of this NFT\");\n        require(isNftListed[id]!=true, \"NFT is already for sale\");\n        _approve(address(this),id);\n        sellingTokenIdsByAddress[msg.sender].push(id);\n        isNftListed[id]=true;\n\n    }\n\n    function getsellingTokenIdsByAddress(address add) public view returns (uint[] memory) {\n    return sellingTokenIdsByAddress[add];\n    }\n\n    function getTokenIdsByAddress(address add) public view returns (uint[] memory) {\n    return TokenIdsByAddress[add];\n    }\n\n   function removeTokenIdsByAddress(address add, uint _ID) public \n   {\n        uint[] storage tokenIds = TokenIdsByAddress[add];\n        for (uint i = 0; i < tokenIds.length; i++) \n        {\n            if (tokenIds[i] == _ID)\n            {\n                if (i < tokenIds.length - 1) {\n                    tokenIds[i] = tokenIds[tokenIds.length - 1];\n                }\n                tokenIds.pop(); \n                return; \n            }\n        }\n    }\n\n    function removeSell(address add, uint _ID) public \n    {\n        uint[] storage tokenIds = sellingTokenIdsByAddress[add];\n        for (uint i = 0; i < tokenIds.length; i++) \n        {\n            if (tokenIds[i] == _ID) {\n                if (i < tokenIds.length - 1) {\n                    tokenIds[i] = tokenIds[tokenIds.length - 1];\n                }\n                tokenIds.pop(); \n                isNftListed[_ID]=false;\n                return; \n            }\n        }\n    }\n\n     function buyNft(uint id) public payable \n    {\n        require(_exists(id), \"Token ID does not exist\");\n        require(isNftListed[id]==true, \"NFT is not listed for sale\");\n        uint price = DetailsOfTokenID[id].price;\n        require(msg.value == price, \"Incorrect amount sent\"); \n        address fromAddress=_ownerOf(id);\n        _transfer(fromAddress, msg.sender, id);\n        removeSell(fromAddress,id);\n        removeTokenIdsByAddress(fromAddress,id);\n        isNftListed[id]=false;\n        TokenIdsByAddress[msg.sender].push(id);\n        Details storage nftDetails = DetailsOfTokenID[id];\n        nftDetails.add = msg.sender;\n        payable(fromAddress).transfer(msg.value);\n        emit buyNftEvent(fromAddress,msg.sender,id);\n    }\n\n      function getData (uint _id) public view returns(Details memory){\n        return DetailsOfTokenID[_id];\n    }\n\n    function _burn(uint256 tokenId) internal override(ERC721URIStorage, ERC721) {\n        super._burn(tokenId);\n    }\n\n\n    function getOwnerAddress() public view returns (address) {\n            return owner();\n        }\n\n    function Update(uint _tokenId,string memory _name, uint _price, string memory _description, string memory _tokenUri ,string memory _metadataTokenUri) public returns (string memory)\n    {\n        require(DetailsOfTokenID[_tokenId].price > 0, \"Token ID does not exist\");\n        DetailsOfTokenID[_tokenId]=Details(msg.sender,_tokenId,_name,_price,_description,_tokenUri,_metadataTokenUri);\n        _setTokenURI(_tokenId, _metadataTokenUri);\n        emit metadataUpdated(_tokenId,_name,_price,_description,_tokenUri,_metadataTokenUri);\n        return _metadataTokenUri;\n    }    \n \n}",
	"sourcePath": "/home/hp/Documents/nency/nft_marketPlace/contracts/NFT.sol",
	"compiler": {
		"name": "solc",
		"version": "0.8.18+commit.87f61d96.Emscripten.clang"
	},
	"schemaVersion": "3.4.11",
	"updatedAt": "2023-10-16T05:49:01.452Z",
	"networkType": "ethereum",
	"devdoc": {
		"events": {
			"Approval(address,address,uint256)": {
				"details": "Emitted when `owner` enables `approved` to manage the `tokenId` token."
			},
			"ApprovalForAll(address,address,bool)": {
				"details": "Emitted when `owner` enables or disables (`approved`) `operator` to manage all of its assets."
			},
			"BatchMetadataUpdate(uint256,uint256)": {
				"details": "This event emits when the metadata of a range of tokens is changed. So that the third-party platforms such as NFT market could timely update the images and related attributes of the NFTs."
			},
			"MetadataUpdate(uint256)": {
				"details": "This event emits when the metadata of a token is changed. So that the third-party platforms such as NFT market could timely update the images and related attributes of the NFT."
			},
			"Transfer(address,address,uint256)": {
				"details": "Emitted when `tokenId` token is transferred from `from` to `to`."
			}
		},
		"kind": "dev",
		"methods": {
			"approve(address,uint256)": {
				"details": "See {IERC721-approve}."
			},
			"balanceOf(address)": {
				"details": "See {IERC721-balanceOf}."
			},
			"getApproved(uint256)": {
				"details": "See {IERC721-getApproved}."
			},
			"isApprovedForAll(address,address)": {
				"details": "See {IERC721-isApprovedForAll}."
			},
			"name()": {
				"details": "See {IERC721Metadata-name}."
			},
			"owner()": {
				"details": "Returns the address of the current owner."
			},
			"ownerOf(uint256)": {
				"details": "See {IERC721-ownerOf}."
			},
			"renounceOwnership()": {
				"details": "Leaves the contract without owner. It will not be possible to call `onlyOwner` functions. Can only be called by the current owner. NOTE: Renouncing ownership will leave the contract without an owner, thereby disabling any functionality that is only available to the owner."
			},
			"safeTransferFrom(address,address,uint256)": {
				"details": "See {IERC721-safeTransferFrom}."
			},
			"safeTransferFrom(address,address,uint256,bytes)": {
				"details": "See {IERC721-safeTransferFrom}."
			},
			"setApprovalForAll(address,bool)": {
				"details": "See {IERC721-setApprovalForAll}."
			},
			"symbol()": {
				"details": "See {IERC721Metadata-symbol}."
			},
			"tokenByIndex(uint256)": {
				"details": "See {IERC721Enumerable-tokenByIndex}."
			},
			"tokenOfOwnerByIndex(address,uint256)": {
				"details": "See {IERC721Enumerable-tokenOfOwnerByIndex}."
			},
			"totalSupply()": {
				"details": "See {IERC721Enumerable-totalSupply}."
			},
			"transferFrom(address,address,uint256)": {
				"details": "See {IERC721-transferFrom}."
			},
			"transferOwnership(address)": {
				"details": "Transfers ownership of the contract to a new account (`newOwner`). Can only be called by the current owner."
			}
		},
		"version": 1
	},
	"userdoc": {
		"kind": "user",
		"methods": {},
		"version": 1
	}
}